{
    "_format": "hh-sol-artifact-1",
    "contractName": "Sustain",
    "sourceName": "contracts/Sustain.sol",
    "abi": [
        {
            "anonymous": false,
            "inputs": [
                {
                    "indexed": true,
                    "internalType": "uint256",
                    "name": "projectId",
                    "type": "uint256"
                },
                {
                    "indexed": false,
                    "internalType": "uint256",
                    "name": "carbonOffsetRemoved",
                    "type": "uint256"
                }
            ],
            "name": "CarbonOffsetRemoved",
            "type": "event"
        },
        {
            "anonymous": false,
            "inputs": [
                {
                    "indexed": true,
                    "internalType": "uint256",
                    "name": "projectId",
                    "type": "uint256"
                },
                {
                    "indexed": true,
                    "internalType": "address",
                    "name": "doner",
                    "type": "address"
                },
                {
                    "indexed": false,
                    "internalType": "uint256",
                    "name": "amount",
                    "type": "uint256"
                }
            ],
            "name": "DonationReceived",
            "type": "event"
        },
        {
            "anonymous": false,
            "inputs": [
                {
                    "indexed": true,
                    "internalType": "uint256",
                    "name": "projectId",
                    "type": "uint256"
                },
                {
                    "indexed": false,
                    "internalType": "string",
                    "name": "name",
                    "type": "string"
                },
                {
                    "indexed": false,
                    "internalType": "uint256",
                    "name": "targetCarbonOffset",
                    "type": "uint256"
                },
                {
                    "indexed": false,
                    "internalType": "uint256",
                    "name": "deadline",
                    "type": "uint256"
                }
            ],
            "name": "ProjectCreated",
            "type": "event"
        },
        {
            "inputs": [
                {
                    "internalType": "uint256",
                    "name": "_projectId",
                    "type": "uint256"
                }
            ],
            "name": "carbonOffsetRemoved",
            "outputs": [
                {
                    "internalType": "uint256",
                    "name": "",
                    "type": "uint256"
                }
            ],
            "stateMutability": "view",
            "type": "function"
        },
        {
            "inputs": [
                {
                    "internalType": "string",
                    "name": "_name",
                    "type": "string"
                },
                {
                    "internalType": "string",
                    "name": "_country",
                    "type": "string"
                },
                {
                    "internalType": "string",
                    "name": "_description",
                    "type": "string"
                },
                {
                    "internalType": "string",
                    "name": "_latitude",
                    "type": "string"
                },
                {
                    "internalType": "string",
                    "name": "_longitude",
                    "type": "string"
                },
                {
                    "internalType": "uint256",
                    "name": "_targetCarbonOffset",
                    "type": "uint256"
                },
                {
                    "internalType": "uint256",
                    "name": "_deadline",
                    "type": "uint256"
                },
                {
                    "internalType": "string",
                    "name": "_imageCID",
                    "type": "string"
                }
            ],
            "name": "createProject",
            "outputs": [],
            "stateMutability": "nonpayable",
            "type": "function"
        },
        {
            "inputs": [
                {
                    "internalType": "uint256",
                    "name": "_projectId",
                    "type": "uint256"
                }
            ],
            "name": "donate",
            "outputs": [],
            "stateMutability": "payable",
            "type": "function"
        },
        {
            "inputs": [],
            "name": "getAllProjects",
            "outputs": [
                {
                    "components": [
                        {
                            "internalType": "string",
                            "name": "name",
                            "type": "string"
                        },
                        {
                            "internalType": "string",
                            "name": "country",
                            "type": "string"
                        },
                        {
                            "internalType": "string",
                            "name": "description",
                            "type": "string"
                        },
                        {
                            "internalType": "string",
                            "name": "latitude",
                            "type": "string"
                        },
                        {
                            "internalType": "string",
                            "name": "longitude",
                            "type": "string"
                        },
                        {
                            "internalType": "uint256",
                            "name": "targetCarbonOffset",
                            "type": "uint256"
                        },
                        {
                            "internalType": "uint256",
                            "name": "carbonOffsetRemoved",
                            "type": "uint256"
                        },
                        {
                            "internalType": "uint256",
                            "name": "deadline",
                            "type": "uint256"
                        },
                        {
                            "internalType": "uint256",
                            "name": "totalDonationsReceived",
                            "type": "uint256"
                        },
                        {
                            "internalType": "string",
                            "name": "imageCID",
                            "type": "string"
                        }
                    ],
                    "internalType": "struct Sustain.ProjectDetails[]",
                    "name": "",
                    "type": "tuple[]"
                }
            ],
            "stateMutability": "view",
            "type": "function"
        },
        {
            "inputs": [
                {
                    "internalType": "uint256",
                    "name": "_projectId",
                    "type": "uint256"
                }
            ],
            "name": "getProjectById",
            "outputs": [
                {
                    "internalType": "string",
                    "name": "",
                    "type": "string"
                },
                {
                    "internalType": "string",
                    "name": "",
                    "type": "string"
                },
                {
                    "internalType": "string",
                    "name": "",
                    "type": "string"
                },
                {
                    "internalType": "string",
                    "name": "",
                    "type": "string"
                },
                {
                    "internalType": "string",
                    "name": "",
                    "type": "string"
                },
                {
                    "internalType": "uint256",
                    "name": "",
                    "type": "uint256"
                },
                {
                    "internalType": "uint256",
                    "name": "",
                    "type": "uint256"
                },
                {
                    "internalType": "bool",
                    "name": "",
                    "type": "bool"
                },
                {
                    "internalType": "address[]",
                    "name": "",
                    "type": "address[]"
                },
                {
                    "internalType": "string",
                    "name": "",
                    "type": "string"
                }
            ],
            "stateMutability": "view",
            "type": "function"
        },
        {
            "inputs": [
                {
                    "internalType": "string",
                    "name": "_name",
                    "type": "string"
                }
            ],
            "name": "getProjectIdByName",
            "outputs": [
                {
                    "internalType": "uint256",
                    "name": "",
                    "type": "uint256"
                }
            ],
            "stateMutability": "view",
            "type": "function"
        },
        {
            "inputs": [
                {
                    "internalType": "bytes32",
                    "name": "",
                    "type": "bytes32"
                }
            ],
            "name": "projectIdByName",
            "outputs": [
                {
                    "internalType": "uint256",
                    "name": "",
                    "type": "uint256"
                }
            ],
            "stateMutability": "view",
            "type": "function"
        },
        {
            "inputs": [
                {
                    "internalType": "uint256",
                    "name": "",
                    "type": "uint256"
                }
            ],
            "name": "projects",
            "outputs": [
                {
                    "internalType": "string",
                    "name": "name",
                    "type": "string"
                },
                {
                    "internalType": "string",
                    "name": "country",
                    "type": "string"
                },
                {
                    "internalType": "string",
                    "name": "description",
                    "type": "string"
                },
                {
                    "internalType": "string",
                    "name": "latitude",
                    "type": "string"
                },
                {
                    "internalType": "string",
                    "name": "longitude",
                    "type": "string"
                },
                {
                    "internalType": "uint256",
                    "name": "targetCarbonOffset",
                    "type": "uint256"
                },
                {
                    "internalType": "uint256",
                    "name": "carbonOffsetRemoved",
                    "type": "uint256"
                },
                {
                    "internalType": "uint256",
                    "name": "deadline",
                    "type": "uint256"
                },
                {
                    "internalType": "uint256",
                    "name": "totalDonationsReceived",
                    "type": "uint256"
                },
                {
                    "internalType": "bool",
                    "name": "exists",
                    "type": "bool"
                },
                {
                    "internalType": "string",
                    "name": "imageCID",
                    "type": "string"
                }
            ],
            "stateMutability": "view",
            "type": "function"
        },
        {
            "inputs": [],
            "name": "totalProjectsCreated",
            "outputs": [
                {
                    "internalType": "uint256",
                    "name": "",
                    "type": "uint256"
                }
            ],
            "stateMutability": "view",
            "type": "function"
        }
    ],
    "bytecode": "0x608060405234801561001057600080fd5b50611b93806100206000396000f3fe6080604052600436106100765760003560e01c8063107046bd1461007b5780631c91ecb6146100bb578063594349c8146100df57806380d038291461010c5780639d29d2dd1461012e5780639f109a571461014e578063bee5cdca14610170578063eafbd8ee146101a6578063f14faf6f146101c6575b600080fd5b34801561008757600080fd5b5061009b6100963660046114ef565b6101d9565b6040516100b29b9a99989796959493929190611564565b60405180910390f35b3480156100c757600080fd5b506100d160005481565b6040519081526020016100b2565b3480156100eb57600080fd5b506100d16100fa3660046114ef565b60026020526000908152604090205481565b34801561011857600080fd5b50610121610568565b6040516100b29190611611565b34801561013a57600080fd5b506100d16101493660046114ef565b610a31565b34801561015a57600080fd5b5061016e6101693660046117d2565b610a76565b005b34801561017c57600080fd5b5061019061018b3660046114ef565b610ce7565b6040516100b29a999897969594939291906118db565b3480156101b257600080fd5b506100d16101c13660046119bd565b61112c565b61016e6101d43660046114ef565b61118c565b6001602052600090815260409020805481906101f4906119f9565b80601f0160208091040260200160405190810160405280929190818152602001828054610220906119f9565b801561026d5780601f106102425761010080835404028352916020019161026d565b820191906000526020600020905b81548152906001019060200180831161025057829003601f168201915b505050505090806001018054610282906119f9565b80601f01602080910402602001604051908101604052809291908181526020018280546102ae906119f9565b80156102fb5780601f106102d0576101008083540402835291602001916102fb565b820191906000526020600020905b8154815290600101906020018083116102de57829003601f168201915b505050505090806002018054610310906119f9565b80601f016020809104026020016040519081016040528092919081815260200182805461033c906119f9565b80156103895780601f1061035e57610100808354040283529160200191610389565b820191906000526020600020905b81548152906001019060200180831161036c57829003601f168201915b50505050509080600301805461039e906119f9565b80601f01602080910402602001604051908101604052809291908181526020018280546103ca906119f9565b80156104175780601f106103ec57610100808354040283529160200191610417565b820191906000526020600020905b8154815290600101906020018083116103fa57829003601f168201915b50505050509080600401805461042c906119f9565b80601f0160208091040260200160405190810160405280929190818152602001828054610458906119f9565b80156104a55780601f1061047a576101008083540402835291602001916104a5565b820191906000526020600020905b81548152906001019060200180831161048857829003601f168201915b5050505050908060050154908060060154908060070154908060080154908060090160009054906101000a900460ff169080600c0180546104e5906119f9565b80601f0160208091040260200160405190810160405280929190818152602001828054610511906119f9565b801561055e5780601f106105335761010080835404028352916020019161055e565b820191906000526020600020905b81548152906001019060200180831161054157829003601f168201915b505050505090508b565b6060600080546001600160401b0381111561058557610585611730565b60405190808252806020026020018201604052801561060c57816020015b6105f9604051806101400160405280606081526020016060815260200160608152602001606081526020016060815260200160008152602001600081526020016000815260200160008152602001606081525090565b8152602001906001900390816105a35790505b5090506000805b600054811015610a295760008181526001602052604090206009015460ff1615610a17576000818152600160205260408082208151610140810190925280549092919081908490610663906119f9565b80601f016020809104026020016040519081016040528092919081815260200182805461068f906119f9565b80156106dc5780601f106106b1576101008083540402835291602001916106dc565b820191906000526020600020905b8154815290600101906020018083116106bf57829003601f168201915b505050505081526020018360010180546106f5906119f9565b80601f0160208091040260200160405190810160405280929190818152602001828054610721906119f9565b801561076e5780601f106107435761010080835404028352916020019161076e565b820191906000526020600020905b81548152906001019060200180831161075157829003601f168201915b50505050508152602001836002018054610787906119f9565b80601f01602080910402602001604051908101604052809291908181526020018280546107b3906119f9565b80156108005780601f106107d557610100808354040283529160200191610800565b820191906000526020600020905b8154815290600101906020018083116107e357829003601f168201915b50505050508152602001836003018054610819906119f9565b80601f0160208091040260200160405190810160405280929190818152602001828054610845906119f9565b80156108925780601f1061086757610100808354040283529160200191610892565b820191906000526020600020905b81548152906001019060200180831161087557829003601f168201915b505050505081526020018360040180546108ab906119f9565b80601f01602080910402602001604051908101604052809291908181526020018280546108d7906119f9565b80156109245780601f106108f957610100808354040283529160200191610924565b820191906000526020600020905b81548152906001019060200180831161090757829003601f168201915b505050505081526020018360050154815260200183600601548152602001836007015481526020018360080154815260200183600c018054610965906119f9565b80601f0160208091040260200160405190810160405280929190818152602001828054610991906119f9565b80156109de5780601f106109b3576101008083540402835291602001916109de565b820191906000526020600020905b8154815290600101906020018083116109c157829003601f168201915b50505050508152509050808585815181106109fb576109fb611a34565b60200260200101819052508380610a1190611a60565b94505050505b80610a2181611a60565b915050610613565b509092915050565b6000818152600160205260408120600981015460ff16610a6c5760405162461bcd60e51b8152600401610a6390611a7b565b60405180910390fd5b6006015492915050565b60008311610ae05760405162461bcd60e51b815260206004820152603160248201527f54617267657420636172626f6e206f66667365742073686f756c6420626520676044820152703932b0ba32b9103a3430b7103d32b9379760791b6064820152608401610a63565b428211610b2f5760405162461bcd60e51b815260206004820152601d60248201527f446561646c696e652073686f756c6420626520696e206675747572652e0000006044820152606401610a63565b600088604051602001610b429190611aac565b60408051601f1981840301815291815281516020928301206000818152600290935291205490915015610bca5760405162461bcd60e51b815260206004820152602a60248201527f50726f6a6563742077697468207468652073616d65206e616d6520616c726561604482015269323c9032bc34b9ba399760b11b6064820152608401610a63565b6000805482825260026020526040822081905590819080610bea83611a60565b909155505060008181526001602090815260409091208b519091610c129183918e0190611456565b508951610c2890600183019060208d0190611456565b508851610c3e90600283019060208c0190611456565b508751610c5490600383019060208b0190611456565b508651610c6a90600483019060208a0190611456565b50600581018690556007810185905560098101805460ff191660011790558351610c9d90600c8301906020870190611456565b50817f6ad8e25e78a676033392e940160acc1fa955f929f88d380f5fd2d2f5d9ce9e208c8888604051610cd293929190611ac8565b60405180910390a25050505050505050505050565b6000818152600160205260408120600981015460609283928392839283929091829182918591829160ff16610d2e5760405162461bcd60e51b8152600401610a6390611a7b565b8060000181600101826002018360030184600401856005015486600601548760090160009054906101000a900460ff1688600a0189600c01898054610d72906119f9565b80601f0160208091040260200160405190810160405280929190818152602001828054610d9e906119f9565b8015610deb5780601f10610dc057610100808354040283529160200191610deb565b820191906000526020600020905b815481529060010190602001808311610dce57829003601f168201915b50505050509950888054610dfe906119f9565b80601f0160208091040260200160405190810160405280929190818152602001828054610e2a906119f9565b8015610e775780601f10610e4c57610100808354040283529160200191610e77565b820191906000526020600020905b815481529060010190602001808311610e5a57829003601f168201915b50505050509850878054610e8a906119f9565b80601f0160208091040260200160405190810160405280929190818152602001828054610eb6906119f9565b8015610f035780601f10610ed857610100808354040283529160200191610f03565b820191906000526020600020905b815481529060010190602001808311610ee657829003601f168201915b50505050509750868054610f16906119f9565b80601f0160208091040260200160405190810160405280929190818152602001828054610f42906119f9565b8015610f8f5780601f10610f6457610100808354040283529160200191610f8f565b820191906000526020600020905b815481529060010190602001808311610f7257829003601f168201915b50505050509650858054610fa2906119f9565b80601f0160208091040260200160405190810160405280929190818152602001828054610fce906119f9565b801561101b5780601f10610ff05761010080835404028352916020019161101b565b820191906000526020600020905b815481529060010190602001808311610ffe57829003601f168201915b505050505095508180548060200260200160405190810160405280929190818152602001828054801561107757602002820191906000526020600020905b81546001600160a01b03168152600190910190602001808311611059575b5050505050915080805461108a906119f9565b80601f01602080910402602001604051908101604052809291908181526020018280546110b6906119f9565b80156111035780601f106110d857610100808354040283529160200191611103565b820191906000526020600020905b8154815290600101906020018083116110e657829003601f168201915b505050505090509a509a509a509a509a509a509a509a509a509a50509193959799509193959799565b600080826040516020016111409190611aac565b60408051601f19818403018152918152815160209283012060008181526002909352912054909150806111855760405162461bcd60e51b8152600401610a6390611a7b565b9392505050565b6000818152600160205260409020600981015460ff166111be5760405162461bcd60e51b8152600401610a6390611a7b565b80600701544211156112115760405162461bcd60e51b815260206004820152601c60248201527b283937b532b1ba103232b0b23634b732903430b9903830b9b9b2b21760211b6044820152606401610a63565b806005015481600601541061127f5760405162461bcd60e51b815260206004820152602e60248201527f54617267657420636172626f6e206f66667365742068617320616c726561647960448201526d103132b2b7103932b0b1b432b21760911b6064820152608401610a63565b600034116112e45760405162461bcd60e51b815260206004820152602c60248201527f446f6e6174696f6e20616d6f756e742073686f756c642062652067726561746560448201526b39103a3430b7103d32b9379760a11b6064820152608401610a63565b6000816006015482600501546112fa9190611aed565b9050600061130f662386f26fc1000034611b04565b905034828211156113315782915061132e82662386f26fc10000611b26565b90505b818460060160008282546113459190611b45565b92505081905550808460080160008282546113609190611b45565b9091555050336000908152600b850160205260409020546113a357600a84018054600181018255600091825260209091200180546001600160a01b031916331790555b336000908152600b85016020526040812080548392906113c4908490611b45565b909155505060058401546006850154141561141857847f9e1603b5dcb6cecaa1b1eff5e13f4627f2fd2c1208eaf66c63691f6003c46beb856006015460405161140f91815260200190565b60405180910390a25b604051818152339086907f0b5b4c52969ff7329ecf7ee536409fda87812b15a8622bc6e8cdeab3aee14a269060200160405180910390a35050505050565b828054611462906119f9565b90600052602060002090601f01602090048101928261148457600085556114ca565b82601f1061149d57805160ff19168380011785556114ca565b828001600101855582156114ca579182015b828111156114ca5782518255916020019190600101906114af565b506114d69291506114da565b5090565b5b808211156114d657600081556001016114db565b60006020828403121561150157600080fd5b5035919050565b60005b8381101561152357818101518382015260200161150b565b83811115611532576000848401525b50505050565b60008151808452611550816020860160208601611508565b601f01601f19169290920160200192915050565b60006101608083526115788184018f611538565b9050828103602084015261158c818e611538565b905082810360408401526115a0818d611538565b905082810360608401526115b4818c611538565b905082810360808401526115c8818b611538565b90508860a08401528760c08401528660e0840152856101008401528415156101208401528281036101408401526115ff8185611538565b9e9d5050505050505050505050505050565b60006020808301818452808551808352604092508286019150828160051b87010184880160005b8381101561172257603f198984030185528151610140815181865261165f82870182611538565b915050888201518582038a8701526116778282611538565b915050878201518582038987015261168f8282611538565b915050606080830151868303828801526116a98382611538565b92505050608080830151868303828801526116c48382611538565b60a0858101519089015260c0808601519089015260e0808601519089015261010080860151908901526101209485015188820395890195909552925061170e915082905083611538565b968901969450505090860190600101611638565b509098975050505050505050565b634e487b7160e01b600052604160045260246000fd5b600082601f83011261175757600080fd5b81356001600160401b038082111561177157611771611730565b604051601f8301601f19908116603f0116810190828211818310171561179957611799611730565b816040528381528660208588010111156117b257600080fd5b836020870160208301376000602085830101528094505050505092915050565b600080600080600080600080610100898b0312156117ef57600080fd5b88356001600160401b038082111561180657600080fd5b6118128c838d01611746565b995060208b013591508082111561182857600080fd5b6118348c838d01611746565b985060408b013591508082111561184a57600080fd5b6118568c838d01611746565b975060608b013591508082111561186c57600080fd5b6118788c838d01611746565b965060808b013591508082111561188e57600080fd5b61189a8c838d01611746565b955060a08b0135945060c08b0135935060e08b01359150808211156118be57600080fd5b506118cb8b828c01611746565b9150509295985092959890939650565b60006101408083526118ef8184018e611538565b9050602083820381850152611904828e611538565b91508382036040850152611918828d611538565b9150838203606085015261192c828c611538565b91508382036080850152611940828b611538565b60a085018a905260c0850189905287151560e0860152848103610100860152865180825282880193509082019060005b818110156119955784516001600160a01b031683529383019391830191600101611970565b50508481036101208601526119aa8187611538565b9f9e505050505050505050505050505050565b6000602082840312156119cf57600080fd5b81356001600160401b038111156119e557600080fd5b6119f184828501611746565b949350505050565b600181811c90821680611a0d57607f821691505b60208210811415611a2e57634e487b7160e01b600052602260045260246000fd5b50919050565b634e487b7160e01b600052603260045260246000fd5b634e487b7160e01b600052601160045260246000fd5b6000600019821415611a7457611a74611a4a565b5060010190565b602080825260179082015276283937b532b1ba103237b2b9903737ba1032bc34b9ba1760491b604082015260600190565b60008251611abe818460208701611508565b9190910192915050565b606081526000611adb6060830186611538565b60208301949094525060400152919050565b600082821015611aff57611aff611a4a565b500390565b600082611b2157634e487b7160e01b600052601260045260246000fd5b500490565b6000816000190483118215151615611b4057611b40611a4a565b500290565b60008219821115611b5857611b58611a4a565b50019056fea2646970667358221220ac604cf4dae6b505924f515a05e0177e806d655bb1b99f4dd2c3a3d672e2de1764736f6c63430008090033",
    "linkReferences": {},
    "deployedLinkReferences": {}
}